{
  "_format": "hh-sol-artifact-1",
  "contractName": "EpicNftGame",
  "sourceName": "contracts/EpicNftGame.sol",
  "abi": [
    {
      "inputs": [
        {
          "internalType": "string[]",
          "name": "characterNames",
          "type": "string[]"
        },
        {
          "internalType": "string[]",
          "name": "characterImageURIs",
          "type": "string[]"
        },
        {
          "internalType": "uint256[]",
          "name": "characterHp",
          "type": "uint256[]"
        },
        {
          "internalType": "uint256[]",
          "name": "characterAttackDmg",
          "type": "uint256[]"
        },
        {
          "internalType": "string",
          "name": "bossName",
          "type": "string"
        },
        {
          "internalType": "string",
          "name": "bossImageURI",
          "type": "string"
        },
        {
          "internalType": "uint256",
          "name": "bossHp",
          "type": "uint256"
        },
        {
          "internalType": "uint256",
          "name": "bossAttackDmg",
          "type": "uint256"
        }
      ],
      "stateMutability": "nonpayable",
      "type": "constructor"
    },
    {
      "anonymous": false,
      "inputs": [
        {
          "indexed": true,
          "internalType": "address",
          "name": "owner",
          "type": "address"
        },
        {
          "indexed": true,
          "internalType": "address",
          "name": "approved",
          "type": "address"
        },
        {
          "indexed": true,
          "internalType": "uint256",
          "name": "tokenId",
          "type": "uint256"
        }
      ],
      "name": "Approval",
      "type": "event"
    },
    {
      "anonymous": false,
      "inputs": [
        {
          "indexed": true,
          "internalType": "address",
          "name": "owner",
          "type": "address"
        },
        {
          "indexed": true,
          "internalType": "address",
          "name": "operator",
          "type": "address"
        },
        {
          "indexed": false,
          "internalType": "bool",
          "name": "approved",
          "type": "bool"
        }
      ],
      "name": "ApprovalForAll",
      "type": "event"
    },
    {
      "anonymous": false,
      "inputs": [
        {
          "indexed": false,
          "internalType": "uint256",
          "name": "newBossHp",
          "type": "uint256"
        },
        {
          "indexed": false,
          "internalType": "uint256",
          "name": "newPlayerHp",
          "type": "uint256"
        }
      ],
      "name": "AttackComplete",
      "type": "event"
    },
    {
      "anonymous": false,
      "inputs": [
        {
          "indexed": false,
          "internalType": "address",
          "name": "sender",
          "type": "address"
        },
        {
          "indexed": false,
          "internalType": "uint256",
          "name": "tokenId",
          "type": "uint256"
        },
        {
          "indexed": false,
          "internalType": "uint256",
          "name": "characterIndes",
          "type": "uint256"
        }
      ],
      "name": "CharacterMinted",
      "type": "event"
    },
    {
      "anonymous": false,
      "inputs": [
        {
          "indexed": true,
          "internalType": "address",
          "name": "from",
          "type": "address"
        },
        {
          "indexed": true,
          "internalType": "address",
          "name": "to",
          "type": "address"
        },
        {
          "indexed": true,
          "internalType": "uint256",
          "name": "tokenId",
          "type": "uint256"
        }
      ],
      "name": "Transfer",
      "type": "event"
    },
    {
      "inputs": [
        {
          "internalType": "address",
          "name": "to",
          "type": "address"
        },
        {
          "internalType": "uint256",
          "name": "tokenId",
          "type": "uint256"
        }
      ],
      "name": "approve",
      "outputs": [],
      "stateMutability": "nonpayable",
      "type": "function"
    },
    {
      "inputs": [],
      "name": "attackBoss",
      "outputs": [],
      "stateMutability": "nonpayable",
      "type": "function"
    },
    {
      "inputs": [
        {
          "internalType": "address",
          "name": "owner",
          "type": "address"
        }
      ],
      "name": "balanceOf",
      "outputs": [
        {
          "internalType": "uint256",
          "name": "",
          "type": "uint256"
        }
      ],
      "stateMutability": "view",
      "type": "function"
    },
    {
      "inputs": [],
      "name": "bigBoss",
      "outputs": [
        {
          "internalType": "string",
          "name": "name",
          "type": "string"
        },
        {
          "internalType": "string",
          "name": "imageURI",
          "type": "string"
        },
        {
          "internalType": "uint256",
          "name": "hp",
          "type": "uint256"
        },
        {
          "internalType": "uint256",
          "name": "maxHp",
          "type": "uint256"
        },
        {
          "internalType": "uint256",
          "name": "attackDamage",
          "type": "uint256"
        }
      ],
      "stateMutability": "view",
      "type": "function"
    },
    {
      "inputs": [],
      "name": "checkIfUserHasNft",
      "outputs": [
        {
          "components": [
            {
              "internalType": "uint256",
              "name": "characterIndex",
              "type": "uint256"
            },
            {
              "internalType": "string",
              "name": "name",
              "type": "string"
            },
            {
              "internalType": "string",
              "name": "imageURI",
              "type": "string"
            },
            {
              "internalType": "uint256",
              "name": "hp",
              "type": "uint256"
            },
            {
              "internalType": "uint256",
              "name": "maxHp",
              "type": "uint256"
            },
            {
              "internalType": "uint256",
              "name": "attackDamage",
              "type": "uint256"
            }
          ],
          "internalType": "struct EpicNftGame.CharacterAttributes",
          "name": "",
          "type": "tuple"
        }
      ],
      "stateMutability": "view",
      "type": "function"
    },
    {
      "inputs": [
        {
          "internalType": "uint256",
          "name": "",
          "type": "uint256"
        }
      ],
      "name": "defaultCharacters",
      "outputs": [
        {
          "internalType": "uint256",
          "name": "characterIndex",
          "type": "uint256"
        },
        {
          "internalType": "string",
          "name": "name",
          "type": "string"
        },
        {
          "internalType": "string",
          "name": "imageURI",
          "type": "string"
        },
        {
          "internalType": "uint256",
          "name": "hp",
          "type": "uint256"
        },
        {
          "internalType": "uint256",
          "name": "maxHp",
          "type": "uint256"
        },
        {
          "internalType": "uint256",
          "name": "attackDamage",
          "type": "uint256"
        }
      ],
      "stateMutability": "view",
      "type": "function"
    },
    {
      "inputs": [],
      "name": "getAllCharacters",
      "outputs": [
        {
          "components": [
            {
              "internalType": "uint256",
              "name": "characterIndex",
              "type": "uint256"
            },
            {
              "internalType": "string",
              "name": "name",
              "type": "string"
            },
            {
              "internalType": "string",
              "name": "imageURI",
              "type": "string"
            },
            {
              "internalType": "uint256",
              "name": "hp",
              "type": "uint256"
            },
            {
              "internalType": "uint256",
              "name": "maxHp",
              "type": "uint256"
            },
            {
              "internalType": "uint256",
              "name": "attackDamage",
              "type": "uint256"
            }
          ],
          "internalType": "struct EpicNftGame.CharacterAttributes[]",
          "name": "",
          "type": "tuple[]"
        }
      ],
      "stateMutability": "view",
      "type": "function"
    },
    {
      "inputs": [
        {
          "internalType": "uint256",
          "name": "tokenId",
          "type": "uint256"
        }
      ],
      "name": "getApproved",
      "outputs": [
        {
          "internalType": "address",
          "name": "",
          "type": "address"
        }
      ],
      "stateMutability": "view",
      "type": "function"
    },
    {
      "inputs": [],
      "name": "getBigBoss",
      "outputs": [
        {
          "components": [
            {
              "internalType": "string",
              "name": "name",
              "type": "string"
            },
            {
              "internalType": "string",
              "name": "imageURI",
              "type": "string"
            },
            {
              "internalType": "uint256",
              "name": "hp",
              "type": "uint256"
            },
            {
              "internalType": "uint256",
              "name": "maxHp",
              "type": "uint256"
            },
            {
              "internalType": "uint256",
              "name": "attackDamage",
              "type": "uint256"
            }
          ],
          "internalType": "struct EpicNftGame.BigBoss",
          "name": "",
          "type": "tuple"
        }
      ],
      "stateMutability": "view",
      "type": "function"
    },
    {
      "inputs": [
        {
          "internalType": "address",
          "name": "owner",
          "type": "address"
        },
        {
          "internalType": "address",
          "name": "operator",
          "type": "address"
        }
      ],
      "name": "isApprovedForAll",
      "outputs": [
        {
          "internalType": "bool",
          "name": "",
          "type": "bool"
        }
      ],
      "stateMutability": "view",
      "type": "function"
    },
    {
      "inputs": [
        {
          "internalType": "uint256",
          "name": "_characterIndex",
          "type": "uint256"
        }
      ],
      "name": "mintCharacter",
      "outputs": [],
      "stateMutability": "nonpayable",
      "type": "function"
    },
    {
      "inputs": [],
      "name": "name",
      "outputs": [
        {
          "internalType": "string",
          "name": "",
          "type": "string"
        }
      ],
      "stateMutability": "view",
      "type": "function"
    },
    {
      "inputs": [
        {
          "internalType": "uint256",
          "name": "",
          "type": "uint256"
        }
      ],
      "name": "nftHolderAttributes",
      "outputs": [
        {
          "internalType": "uint256",
          "name": "characterIndex",
          "type": "uint256"
        },
        {
          "internalType": "string",
          "name": "name",
          "type": "string"
        },
        {
          "internalType": "string",
          "name": "imageURI",
          "type": "string"
        },
        {
          "internalType": "uint256",
          "name": "hp",
          "type": "uint256"
        },
        {
          "internalType": "uint256",
          "name": "maxHp",
          "type": "uint256"
        },
        {
          "internalType": "uint256",
          "name": "attackDamage",
          "type": "uint256"
        }
      ],
      "stateMutability": "view",
      "type": "function"
    },
    {
      "inputs": [
        {
          "internalType": "address",
          "name": "",
          "type": "address"
        }
      ],
      "name": "nftHolders",
      "outputs": [
        {
          "internalType": "uint256",
          "name": "",
          "type": "uint256"
        }
      ],
      "stateMutability": "view",
      "type": "function"
    },
    {
      "inputs": [
        {
          "internalType": "uint256",
          "name": "tokenId",
          "type": "uint256"
        }
      ],
      "name": "ownerOf",
      "outputs": [
        {
          "internalType": "address",
          "name": "",
          "type": "address"
        }
      ],
      "stateMutability": "view",
      "type": "function"
    },
    {
      "inputs": [
        {
          "internalType": "address",
          "name": "from",
          "type": "address"
        },
        {
          "internalType": "address",
          "name": "to",
          "type": "address"
        },
        {
          "internalType": "uint256",
          "name": "tokenId",
          "type": "uint256"
        }
      ],
      "name": "safeTransferFrom",
      "outputs": [],
      "stateMutability": "nonpayable",
      "type": "function"
    },
    {
      "inputs": [
        {
          "internalType": "address",
          "name": "from",
          "type": "address"
        },
        {
          "internalType": "address",
          "name": "to",
          "type": "address"
        },
        {
          "internalType": "uint256",
          "name": "tokenId",
          "type": "uint256"
        },
        {
          "internalType": "bytes",
          "name": "_data",
          "type": "bytes"
        }
      ],
      "name": "safeTransferFrom",
      "outputs": [],
      "stateMutability": "nonpayable",
      "type": "function"
    },
    {
      "inputs": [
        {
          "internalType": "address",
          "name": "operator",
          "type": "address"
        },
        {
          "internalType": "bool",
          "name": "approved",
          "type": "bool"
        }
      ],
      "name": "setApprovalForAll",
      "outputs": [],
      "stateMutability": "nonpayable",
      "type": "function"
    },
    {
      "inputs": [
        {
          "internalType": "bytes4",
          "name": "interfaceId",
          "type": "bytes4"
        }
      ],
      "name": "supportsInterface",
      "outputs": [
        {
          "internalType": "bool",
          "name": "",
          "type": "bool"
        }
      ],
      "stateMutability": "view",
      "type": "function"
    },
    {
      "inputs": [],
      "name": "symbol",
      "outputs": [
        {
          "internalType": "string",
          "name": "",
          "type": "string"
        }
      ],
      "stateMutability": "view",
      "type": "function"
    },
    {
      "inputs": [
        {
          "internalType": "uint256",
          "name": "_tokenId",
          "type": "uint256"
        }
      ],
      "name": "tokenURI",
      "outputs": [
        {
          "internalType": "string",
          "name": "",
          "type": "string"
        }
      ],
      "stateMutability": "view",
      "type": "function"
    },
    {
      "inputs": [
        {
          "internalType": "address",
          "name": "from",
          "type": "address"
        },
        {
          "internalType": "address",
          "name": "to",
          "type": "address"
        },
        {
          "internalType": "uint256",
          "name": "tokenId",
          "type": "uint256"
        }
      ],
      "name": "transferFrom",
      "outputs": [],
      "stateMutability": "nonpayable",
      "type": "function"
    }
  ],
  "bytecode": "0x60806040523480156200001157600080fd5b5060405162005a1a38038062005a1a833981810160405281019062000037919062000aa0565b6040518060400160405280600a81526020017f4e465420436f6d626174000000000000000000000000000000000000000000008152506040518060400160405280600681526020017f436f6d62617400000000000000000000000000000000000000000000000000008152508160009080519060200190620000bb92919062000808565b508060019080519060200190620000d492919062000808565b5050506040518060a0016040528085815260200184815260200183815260200183815260200182815250600760008201518160000190805190602001906200011e92919062000808565b5060208201518160010190805190602001906200013d92919062000808565b50604082015181600201556060820151816003015560808201518160040155905050620002dc6040518060400160405280601781526020017f446f6e6520696e697469616c697a696e6720626f73733a00000000000000000081525060076000018054620001ab9062000dc6565b80601f0160208091040260200160405190810160405280929190818152602001828054620001d99062000dc6565b80156200022a5780601f10620001fe576101008083540402835291602001916200022a565b820191906000526020600020905b8154815290600101906020018083116200020c57829003601f168201915b505050505060076002015460076001018054620002479062000dc6565b80601f0160208091040260200160405190810160405280929190818152602001828054620002759062000dc6565b8015620002c65780601f106200029a57610100808354040283529160200191620002c6565b820191906000526020600020905b815481529060010190602001808311620002a857829003601f168201915b50505050506200071d60201b62001ee21760201c565b60005b8851811015620006f757600e6040518060c001604052808381526020018b848151811062000336577f4e487b7100000000000000000000000000000000000000000000000000000000600052603260045260246000fd5b602002602001015181526020018a84815181106200037d577f4e487b7100000000000000000000000000000000000000000000000000000000600052603260045260246000fd5b60200260200101518152602001898481518110620003c4577f4e487b7100000000000000000000000000000000000000000000000000000000600052603260045260246000fd5b602002602001015181526020018984815181106200040b577f4e487b7100000000000000000000000000000000000000000000000000000000600052603260045260246000fd5b6020026020010151815260200188848151811062000452577f4e487b7100000000000000000000000000000000000000000000000000000000600052603260045260246000fd5b60200260200101518152509080600181540180825580915050600190039060005260206000209060060201600090919091909150600082015181600001556020820151816001019080519060200190620004ae92919062000808565b506040820151816002019080519060200190620004cd92919062000808565b50606082015181600301556080820151816004015560a0820151816005015550506000600e82815481106200052b577f4e487b7100000000000000000000000000000000000000000000000000000000600052603260045260246000fd5b90600052602060002090600602016040518060c001604052908160008201548152602001600182018054620005609062000dc6565b80601f01602080910402602001604051908101604052809291908181526020018280546200058e9062000dc6565b8015620005df5780601f10620005b357610100808354040283529160200191620005df565b820191906000526020600020905b815481529060010190602001808311620005c157829003601f168201915b50505050508152602001600282018054620005fa9062000dc6565b80601f0160208091040260200160405190810160405280929190818152602001828054620006289062000dc6565b8015620006795780601f106200064d5761010080835404028352916020019162000679565b820191906000526020600020905b8154815290600101906020018083116200065b57829003601f168201915b5050505050815260200160038201548152602001600482015481526020016005820154815250509050620006e0604051806060016040528060258152602001620059f5602591398260200151836060015184604001516200071d60201b62001ee21760201c565b508080620006ee9062000e32565b915050620002df565b506200070f6006620007c960201b62001f841760201c565b505050505050505062000f38565b620007c3848484846040516024016200073a949392919062000c4b565b6040516020818303038152906040527f8d142cdd000000000000000000000000000000000000000000000000000000007bffffffffffffffffffffffffffffffffffffffffffffffffffffffff19166020820180517bffffffffffffffffffffffffffffffffffffffffffffffffffffffff8381831617835250505050620007df60201b60201c565b50505050565b6001816000016000828254019250508190555050565b60008151905060006a636f6e736f6c652e6c6f679050602083016000808483855afa5050505050565b828054620008169062000dc6565b90600052602060002090601f0160209004810192826200083a576000855562000886565b82601f106200085557805160ff191683800117855562000886565b8280016001018555821562000886579182015b828111156200088557825182559160200191906001019062000868565b5b50905062000895919062000899565b5090565b5b80821115620008b45760008160009055506001016200089a565b5090565b6000620008cf620008c98462000cd6565b62000cad565b90508083825260208201905082856020860282011115620008ef57600080fd5b60005b858110156200093e57815167ffffffffffffffff8111156200091357600080fd5b80860162000922898262000a5c565b85526020850194506020840193505050600181019050620008f2565b5050509392505050565b60006200095f620009598462000d05565b62000cad565b905080838252602082019050828560208602820111156200097f57600080fd5b60005b85811015620009b3578162000998888262000a89565b84526020840193506020830192505060018101905062000982565b5050509392505050565b6000620009d4620009ce8462000d34565b62000cad565b905082815260208101848484011115620009ed57600080fd5b620009fa84828562000d90565b509392505050565b600082601f83011262000a1457600080fd5b815162000a26848260208601620008b8565b91505092915050565b600082601f83011262000a4157600080fd5b815162000a5384826020860162000948565b91505092915050565b600082601f83011262000a6e57600080fd5b815162000a80848260208601620009bd565b91505092915050565b60008151905062000a9a8162000f1e565b92915050565b600080600080600080600080610100898b03121562000abe57600080fd5b600089015167ffffffffffffffff81111562000ad957600080fd5b62000ae78b828c0162000a02565b985050602089015167ffffffffffffffff81111562000b0557600080fd5b62000b138b828c0162000a02565b975050604089015167ffffffffffffffff81111562000b3157600080fd5b62000b3f8b828c0162000a2f565b965050606089015167ffffffffffffffff81111562000b5d57600080fd5b62000b6b8b828c0162000a2f565b955050608089015167ffffffffffffffff81111562000b8957600080fd5b62000b978b828c0162000a5c565b94505060a089015167ffffffffffffffff81111562000bb557600080fd5b62000bc38b828c0162000a5c565b93505060c062000bd68b828c0162000a89565b92505060e062000be98b828c0162000a89565b9150509295985092959890939650565b600062000c068262000d6a565b62000c12818562000d75565b935062000c2481856020860162000d90565b62000c2f8162000f0d565b840191505092915050565b62000c458162000d86565b82525050565b6000608082019050818103600083015262000c67818762000bf9565b9050818103602083015262000c7d818662000bf9565b905062000c8e604083018562000c3a565b818103606083015262000ca2818462000bf9565b905095945050505050565b600062000cb962000ccc565b905062000cc7828262000dfc565b919050565b6000604051905090565b600067ffffffffffffffff82111562000cf45762000cf362000ede565b5b602082029050602081019050919050565b600067ffffffffffffffff82111562000d235762000d2262000ede565b5b602082029050602081019050919050565b600067ffffffffffffffff82111562000d525762000d5162000ede565b5b62000d5d8262000f0d565b9050602081019050919050565b600081519050919050565b600082825260208201905092915050565b6000819050919050565b60005b8381101562000db057808201518184015260208101905062000d93565b8381111562000dc0576000848401525b50505050565b6000600282049050600182168062000ddf57607f821691505b6020821081141562000df65762000df562000eaf565b5b50919050565b62000e078262000f0d565b810181811067ffffffffffffffff8211171562000e295762000e2862000ede565b5b80604052505050565b600062000e3f8262000d86565b91507fffffffffffffffffffffffffffffffffffffffffffffffffffffffffffffffff82141562000e755762000e7462000e80565b5b600182019050919050565b7f4e487b7100000000000000000000000000000000000000000000000000000000600052601160045260246000fd5b7f4e487b7100000000000000000000000000000000000000000000000000000000600052602260045260246000fd5b7f4e487b7100000000000000000000000000000000000000000000000000000000600052604160045260246000fd5b6000601f19601f8301169050919050565b62000f298162000d86565b811462000f3557600080fd5b50565b614aad8062000f486000396000f3fe608060405234801561001057600080fd5b50600436106101425760003560e01c806395d89b41116100b8578063c732d3961161007c578063c732d39614610392578063c87b56dd146103b0578063d4f24c5b146103e0578063e90eb7dc146103ea578063e985e9c514610406578063f7a0a8241461043657610142565b806395d89b41146102e557806398da4c9514610303578063a22cb46514610338578063a9c3267914610354578063b88d4fde1461037657610142565b806323b872dd1161010a57806323b872dd146101ff57806342842e0e1461021b5780636352211e1461023757806370a08231146102675780637df124a11461029757806383e56dca146102c757610142565b806301ffc9a7146101475780630665f9611461017757806306fdde0314610195578063081812fc146101b3578063095ea7b3146101e3575b600080fd5b610161600480360381019061015c91906131bc565b61046b565b60405161016e9190613a21565b60405180910390f35b61017f61054d565b60405161018c9190613dba565b60405180910390f35b61019d6106a9565b6040516101aa9190613a3c565b60405180910390f35b6101cd60048036038101906101c8919061320e565b61073b565b6040516101da9190613961565b60405180910390f35b6101fd60048036038101906101f89190613180565b6107c0565b005b6102196004803603810190610214919061307a565b6108d8565b005b6102356004803603810190610230919061307a565b610938565b005b610251600480360381019061024c919061320e565b610958565b60405161025e9190613961565b60405180910390f35b610281600480360381019061027c9190613015565b610a0a565b60405161028e9190613dfe565b60405180910390f35b6102b160048036038101906102ac9190613015565b610ac2565b6040516102be9190613dfe565b60405180910390f35b6102cf610ada565b6040516102dc91906139ff565b60405180910390f35b6102ed610c85565b6040516102fa9190613a3c565b60405180910390f35b61031d6004803603810190610318919061320e565b610d17565b60405161032f96959493929190613e19565b60405180910390f35b610352600480360381019061034d9190613144565b610e63565b005b61035c610fe4565b60405161036d959493929190613b0b565b60405180910390f35b610390600480360381019061038b91906130c9565b611118565b005b61039a61117a565b6040516103a79190613ddc565b60405180910390f35b6103ca60048036038101906103c5919061320e565b611358565b6040516103d79190613a3c565b60405180910390f35b6103e8611573565b005b61040460048036038101906103ff919061320e565b6118fe565b005b610420600480360381019061041b919061303e565b611cf2565b60405161042d9190613a21565b60405180910390f35b610450600480360381019061044b919061320e565b611d86565b60405161046296959493929190613e19565b60405180910390f35b60007f80ac58cd000000000000000000000000000000000000000000000000000000007bffffffffffffffffffffffffffffffffffffffffffffffffffffffff1916827bffffffffffffffffffffffffffffffffffffffffffffffffffffffff1916148061053657507f5b5e139f000000000000000000000000000000000000000000000000000000007bffffffffffffffffffffffffffffffffffffffffffffffffffffffff1916827bffffffffffffffffffffffffffffffffffffffffffffffffffffffff1916145b80610546575061054582611f9a565b5b9050919050565b610555612e3c565b60076040518060a00160405290816000820180546105729061415f565b80601f016020809104026020016040519081016040528092919081815260200182805461059e9061415f565b80156105eb5780601f106105c0576101008083540402835291602001916105eb565b820191906000526020600020905b8154815290600101906020018083116105ce57829003601f168201915b505050505081526020016001820180546106049061415f565b80601f01602080910402602001604051908101604052809291908181526020018280546106309061415f565b801561067d5780601f106106525761010080835404028352916020019161067d565b820191906000526020600020905b81548152906001019060200180831161066057829003601f168201915b505050505081526020016002820154815260200160038201548152602001600482015481525050905090565b6060600080546106b89061415f565b80601f01602080910402602001604051908101604052809291908181526020018280546106e49061415f565b80156107315780601f1061070657610100808354040283529160200191610731565b820191906000526020600020905b81548152906001019060200180831161071457829003601f168201915b5050505050905090565b600061074682612004565b610785576040517f08c379a000000000000000000000000000000000000000000000000000000000815260040161077c90613d3a565b60405180910390fd5b6004600083815260200190815260200160002060009054906101000a900473ffffffffffffffffffffffffffffffffffffffff169050919050565b60006107cb82610958565b90508073ffffffffffffffffffffffffffffffffffffffff168373ffffffffffffffffffffffffffffffffffffffff16141561083c576040517f08c379a000000000000000000000000000000000000000000000000000000000815260040161083390613d7a565b60405180910390fd5b8073ffffffffffffffffffffffffffffffffffffffff1661085b612070565b73ffffffffffffffffffffffffffffffffffffffff16148061088a575061088981610884612070565b611cf2565b5b6108c9576040517f08c379a00000000000000000000000000000000000000000000000000000000081526004016108c090613c9a565b60405180910390fd5b6108d38383612078565b505050565b6108e96108e3612070565b82612131565b610928576040517f08c379a000000000000000000000000000000000000000000000000000000000815260040161091f90613d9a565b60405180910390fd5b61093383838361220f565b505050565b61095383838360405180602001604052806000815250611118565b505050565b6000806002600084815260200190815260200160002060009054906101000a900473ffffffffffffffffffffffffffffffffffffffff169050600073ffffffffffffffffffffffffffffffffffffffff168173ffffffffffffffffffffffffffffffffffffffff161415610a01576040517f08c379a00000000000000000000000000000000000000000000000000000000081526004016109f890613cfa565b60405180910390fd5b80915050919050565b60008073ffffffffffffffffffffffffffffffffffffffff168273ffffffffffffffffffffffffffffffffffffffff161415610a7b576040517f08c379a0000000000000000000000000000000000000000000000000000000008152600401610a7290613cda565b60405180910390fd5b600360008373ffffffffffffffffffffffffffffffffffffffff1673ffffffffffffffffffffffffffffffffffffffff168152602001908152602001600020549050919050565b600d6020528060005260406000206000915090505481565b6060600e805480602002602001604051908101604052809291908181526020016000905b82821015610c7c57838290600052602060002090600602016040518060c001604052908160008201548152602001600182018054610b3b9061415f565b80601f0160208091040260200160405190810160405280929190818152602001828054610b679061415f565b8015610bb45780601f10610b8957610100808354040283529160200191610bb4565b820191906000526020600020905b815481529060010190602001808311610b9757829003601f168201915b50505050508152602001600282018054610bcd9061415f565b80601f0160208091040260200160405190810160405280929190818152602001828054610bf99061415f565b8015610c465780601f10610c1b57610100808354040283529160200191610c46565b820191906000526020600020905b815481529060010190602001808311610c2957829003601f168201915b50505050508152602001600382015481526020016004820154815260200160058201548152505081526020019060010190610afe565b50505050905090565b606060018054610c949061415f565b80601f0160208091040260200160405190810160405280929190818152602001828054610cc09061415f565b8015610d0d5780601f10610ce257610100808354040283529160200191610d0d565b820191906000526020600020905b815481529060010190602001808311610cf057829003601f168201915b5050505050905090565b600c602052806000526040600020600091509050806000015490806001018054610d409061415f565b80601f0160208091040260200160405190810160405280929190818152602001828054610d6c9061415f565b8015610db95780601f10610d8e57610100808354040283529160200191610db9565b820191906000526020600020905b815481529060010190602001808311610d9c57829003601f168201915b505050505090806002018054610dce9061415f565b80601f0160208091040260200160405190810160405280929190818152602001828054610dfa9061415f565b8015610e475780601f10610e1c57610100808354040283529160200191610e47565b820191906000526020600020905b815481529060010190602001808311610e2a57829003601f168201915b5050505050908060030154908060040154908060050154905086565b610e6b612070565b73ffffffffffffffffffffffffffffffffffffffff168273ffffffffffffffffffffffffffffffffffffffff161415610ed9576040517f08c379a0000000000000000000000000000000000000000000000000000000008152600401610ed090613c5a565b60405180910390fd5b8060056000610ee6612070565b73ffffffffffffffffffffffffffffffffffffffff1673ffffffffffffffffffffffffffffffffffffffff16815260200190815260200160002060008473ffffffffffffffffffffffffffffffffffffffff1673ffffffffffffffffffffffffffffffffffffffff16815260200190815260200160002060006101000a81548160ff0219169083151502179055508173ffffffffffffffffffffffffffffffffffffffff16610f93612070565b73ffffffffffffffffffffffffffffffffffffffff167f17307eab39ab6107e8899845ad3d59bd9653f200f220920489ca2b5937696c3183604051610fd89190613a21565b60405180910390a35050565b6007806000018054610ff59061415f565b80601f01602080910402602001604051908101604052809291908181526020018280546110219061415f565b801561106e5780601f106110435761010080835404028352916020019161106e565b820191906000526020600020905b81548152906001019060200180831161105157829003601f168201915b5050505050908060010180546110839061415f565b80601f01602080910402602001604051908101604052809291908181526020018280546110af9061415f565b80156110fc5780601f106110d1576101008083540402835291602001916110fc565b820191906000526020600020905b8154815290600101906020018083116110df57829003601f168201915b5050505050908060020154908060030154908060040154905085565b611129611123612070565b83612131565b611168576040517f08c379a000000000000000000000000000000000000000000000000000000000815260040161115f90613d9a565b60405180910390fd5b6111748484848461246b565b50505050565b611182612e6b565b6000600d60003373ffffffffffffffffffffffffffffffffffffffff1673ffffffffffffffffffffffffffffffffffffffff1681526020019081526020016000205490506000811115611347576000600c60008381526020019081526020016000206040518060c0016040529081600082015481526020016001820180546112099061415f565b80601f01602080910402602001604051908101604052809291908181526020018280546112359061415f565b80156112825780601f1061125757610100808354040283529160200191611282565b820191906000526020600020905b81548152906001019060200180831161126557829003601f168201915b5050505050815260200160028201805461129b9061415f565b80601f01602080910402602001604051908101604052809291908181526020018280546112c79061415f565b80156113145780601f106112e957610100808354040283529160200191611314565b820191906000526020600020905b8154815290600101906020018083116112f757829003601f168201915b50505050508152602001600382015481526020016004820154815260200160058201548152505090508092505050611355565b61134f612e6b565b80925050505b90565b60606000600c60008481526020019081526020016000206040518060c0016040529081600082015481526020016001820180546113949061415f565b80601f01602080910402602001604051908101604052809291908181526020018280546113c09061415f565b801561140d5780601f106113e25761010080835404028352916020019161140d565b820191906000526020600020905b8154815290600101906020018083116113f057829003601f168201915b505050505081526020016002820180546114269061415f565b80601f01602080910402602001604051908101604052809291908181526020018280546114529061415f565b801561149f5780601f106114745761010080835404028352916020019161149f565b820191906000526020600020905b81548152906001019060200180831161148257829003601f168201915b505050505081526020016003820154815260200160048201548152602001600582015481525050905060006114d782606001516124c7565b905060006114e883608001516124c7565b905060006114f98460a001516124c7565b9050600061153f856020015161150e896124c7565b876040015187878760405160200161152b969594939291906138bc565b604051602081830303815290604052612674565b9050600081604051602001611554919061389a565b6040516020818303038152906040529050809650505050505050919050565b6000600d60003373ffffffffffffffffffffffffffffffffffffffff1673ffffffffffffffffffffffffffffffffffffffff1681526020019081526020016000205490506000600c600083815260200190815260200160002090506000816003015411611615576040517f08c379a000000000000000000000000000000000000000000000000000000000815260040161160c90613cba565b60405180910390fd5b60006007600201541161165d576040517f08c379a000000000000000000000000000000000000000000000000000000000815260040161165490613c1a565b60405180910390fd5b6117156040518060600160405280603c8152602001614a0b603c91398260010180546116889061415f565b80601f01602080910402602001604051908101604052809291908181526020018280546116b49061415f565b80156117015780601f106116d657610100808354040283529160200191611701565b820191906000526020600020905b8154815290600101906020018083116116e457829003601f168201915b505050505083600301548460050154612832565b6117ed6040518060400160405280601b81526020017f426f73732025732068617320257320485020616e6420257320414400000000008152506007600001805461175e9061415f565b80601f016020809104026020016040519081016040528092919081815260200182805461178a9061415f565b80156117d75780601f106117ac576101008083540402835291602001916117d7565b820191906000526020600020905b8154815290600101906020018083116117ba57829003601f168201915b5050505050600760020154600760040154612832565b8060050154600760020154101561180e57600060076002018190555061182d565b80600501546007600201546118239190614075565b6007600201819055505b6007600401548160030154101561184d576000816003018190555061186b565b60076004015481600301546118629190614075565b81600301819055505b7f838ab28464562786a6c4ab2311964b82fa60bd9b14aa7e856af1f3f18d41a41460076002015482600301546040516118a5929190613e88565b60405180910390a16118d3604051806060016040528060318152602001614a476031913982600301546128d4565b6118fa604051806060016040528060268152602001614975602691396007600201546128d4565b5050565b600061190a6006612970565b9050611916338261297e565b6040518060c00160405280838152602001600e8481548110611961577f4e487b7100000000000000000000000000000000000000000000000000000000600052603260045260246000fd5b9060005260206000209060060201600101805461197d9061415f565b80601f01602080910402602001604051908101604052809291908181526020018280546119a99061415f565b80156119f65780601f106119cb576101008083540402835291602001916119f6565b820191906000526020600020905b8154815290600101906020018083116119d957829003601f168201915b50505050508152602001600e8481548110611a3a577f4e487b7100000000000000000000000000000000000000000000000000000000600052603260045260246000fd5b90600052602060002090600602016002018054611a569061415f565b80601f0160208091040260200160405190810160405280929190818152602001828054611a829061415f565b8015611acf5780601f10611aa457610100808354040283529160200191611acf565b820191906000526020600020905b815481529060010190602001808311611ab257829003601f168201915b50505050508152602001600e8481548110611b13577f4e487b7100000000000000000000000000000000000000000000000000000000600052603260045260246000fd5b9060005260206000209060060201600301548152602001600e8481548110611b64577f4e487b7100000000000000000000000000000000000000000000000000000000600052603260045260246000fd5b9060005260206000209060060201600401548152602001600e8481548110611bb5577f4e487b7100000000000000000000000000000000000000000000000000000000600052603260045260246000fd5b906000526020600020906006020160050154815250600c6000838152602001908152602001600020600082015181600001556020820151816001019080519060200190611c03929190612ea1565b506040820151816002019080519060200190611c20929190612ea1565b50606082015181600301556080820151816004015560a08201518160050155905050611c6560405180606001604052806030815260200161499b60309139828461299c565b80600d60003373ffffffffffffffffffffffffffffffffffffffff1673ffffffffffffffffffffffffffffffffffffffff16815260200190815260200160002081905550611cb36006611f84565b7f9ebada08c3c21c172cc2a10a368461cde692195ac0db54584007867b48b68b1b338284604051611ce6939291906139c8565b60405180910390a15050565b6000600560008473ffffffffffffffffffffffffffffffffffffffff1673ffffffffffffffffffffffffffffffffffffffff16815260200190815260200160002060008373ffffffffffffffffffffffffffffffffffffffff1673ffffffffffffffffffffffffffffffffffffffff16815260200190815260200160002060009054906101000a900460ff16905092915050565b600e8181548110611d9657600080fd5b9060005260206000209060060201600091509050806000015490806001018054611dbf9061415f565b80601f0160208091040260200160405190810160405280929190818152602001828054611deb9061415f565b8015611e385780601f10611e0d57610100808354040283529160200191611e38565b820191906000526020600020905b815481529060010190602001808311611e1b57829003601f168201915b505050505090806002018054611e4d9061415f565b80601f0160208091040260200160405190810160405280929190818152602001828054611e799061415f565b8015611ec65780601f10611e9b57610100808354040283529160200191611ec6565b820191906000526020600020905b815481529060010190602001808311611ea957829003601f168201915b5050505050908060030154908060040154908060050154905086565b611f7e84848484604051602401611efc9493929190613a5e565b6040516020818303038152906040527f8d142cdd000000000000000000000000000000000000000000000000000000007bffffffffffffffffffffffffffffffffffffffffffffffffffffffff19166020820180517bffffffffffffffffffffffffffffffffffffffffffffffffffffffff8381831617835250505050612a3b565b50505050565b6001816000016000828254019250508190555050565b60007f01ffc9a7000000000000000000000000000000000000000000000000000000007bffffffffffffffffffffffffffffffffffffffffffffffffffffffff1916827bffffffffffffffffffffffffffffffffffffffffffffffffffffffff1916149050919050565b60008073ffffffffffffffffffffffffffffffffffffffff166002600084815260200190815260200160002060009054906101000a900473ffffffffffffffffffffffffffffffffffffffff1673ffffffffffffffffffffffffffffffffffffffff1614159050919050565b600033905090565b816004600083815260200190815260200160002060006101000a81548173ffffffffffffffffffffffffffffffffffffffff021916908373ffffffffffffffffffffffffffffffffffffffff160217905550808273ffffffffffffffffffffffffffffffffffffffff166120eb83610958565b73ffffffffffffffffffffffffffffffffffffffff167f8c5be1e5ebec7d5bd14f71427d1e84f3dd0314c0f7b2291e5b200ac8c7c3b92560405160405180910390a45050565b600061213c82612004565b61217b576040517f08c379a000000000000000000000000000000000000000000000000000000000815260040161217290613c7a565b60405180910390fd5b600061218683610958565b90508073ffffffffffffffffffffffffffffffffffffffff168473ffffffffffffffffffffffffffffffffffffffff1614806121f557508373ffffffffffffffffffffffffffffffffffffffff166121dd8461073b565b73ffffffffffffffffffffffffffffffffffffffff16145b8061220657506122058185611cf2565b5b91505092915050565b8273ffffffffffffffffffffffffffffffffffffffff1661222f82610958565b73ffffffffffffffffffffffffffffffffffffffff1614612285576040517f08c379a000000000000000000000000000000000000000000000000000000000815260040161227c90613d5a565b60405180910390fd5b600073ffffffffffffffffffffffffffffffffffffffff168273ffffffffffffffffffffffffffffffffffffffff1614156122f5576040517f08c379a00000000000000000000000000000000000000000000000000000000081526004016122ec90613c3a565b60405180910390fd5b612300838383612a64565b61230b600082612078565b6001600360008573ffffffffffffffffffffffffffffffffffffffff1673ffffffffffffffffffffffffffffffffffffffff168152602001908152602001600020600082825461235b9190614075565b925050819055506001600360008473ffffffffffffffffffffffffffffffffffffffff1673ffffffffffffffffffffffffffffffffffffffff16815260200190815260200160002060008282546123b29190613f94565b92505081905550816002600083815260200190815260200160002060006101000a81548173ffffffffffffffffffffffffffffffffffffffff021916908373ffffffffffffffffffffffffffffffffffffffff160217905550808273ffffffffffffffffffffffffffffffffffffffff168473ffffffffffffffffffffffffffffffffffffffff167fddf252ad1be2c89b69c2b068fc378daa952ba7f163c4a11628f55a4df523b3ef60405160405180910390a4505050565b61247684848461220f565b61248284848484612a69565b6124c1576040517f08c379a00000000000000000000000000000000000000000000000000000000081526004016124b890613bda565b60405180910390fd5b50505050565b6060600082141561250f576040518060400160405280600181526020017f3000000000000000000000000000000000000000000000000000000000000000815250905061266f565b600082905060005b6000821461254157808061252a906141c2565b915050600a8261253a9190613fea565b9150612517565b60008167ffffffffffffffff811115612583577f4e487b7100000000000000000000000000000000000000000000000000000000600052604160045260246000fd5b6040519080825280601f01601f1916602001820160405280156125b55781602001600182028036833780820191505090505b5090505b60008514612668576001826125ce9190614075565b9150600a856125dd919061420b565b60306125e99190613f94565b60f81b818381518110612625577f4e487b7100000000000000000000000000000000000000000000000000000000600052603260045260246000fd5b60200101907effffffffffffffffffffffffffffffffffffffffffffffffffffffffffffff1916908160001a905350600a856126619190613fea565b94506125b9565b8093505050505b919050565b6060600082519050600081141561269d576040518060200160405280600081525091505061282d565b600060036002836126ae9190613f94565b6126b89190613fea565b60046126c4919061401b565b905060006020826126d59190613f94565b67ffffffffffffffff811115612714577f4e487b7100000000000000000000000000000000000000000000000000000000600052604160045260246000fd5b6040519080825280601f01601f1916602001820160405280156127465781602001600182028036833780820191505090505b50905060006040518060600160405280604081526020016149cb604091399050600181016020830160005b868110156127ea5760038101905062ffffff818a015116603f8160121c168401518060081b905060ff603f83600c1c1686015116810190508060081b905060ff603f8360061c1686015116810190508060081b905060ff603f831686015116810190508060e01b90508084526004840193505050612771565b50600386066001811461280457600281146128145761281f565b613d3d60f01b600283035261281f565b603d60f81b60018303525b508484525050819450505050505b919050565b6128ce8484848460405160240161284c9493929190613ab8565b6040516020818303038152906040527fd5cf17d0000000000000000000000000000000000000000000000000000000007bffffffffffffffffffffffffffffffffffffffffffffffffffffffff19166020820180517bffffffffffffffffffffffffffffffffffffffffffffffffffffffff8381831617835250505050612a3b565b50505050565b61296c82826040516024016128ea929190613b6c565b6040516020818303038152906040527f9710a9d0000000000000000000000000000000000000000000000000000000007bffffffffffffffffffffffffffffffffffffffffffffffffffffffff19166020820180517bffffffffffffffffffffffffffffffffffffffffffffffffffffffff8381831617835250505050612a3b565b5050565b600081600001549050919050565b612998828260405180602001604052806000815250612c00565b5050565b612a368383836040516024016129b493929190613b9c565b6040516020818303038152906040527f969cdd03000000000000000000000000000000000000000000000000000000007bffffffffffffffffffffffffffffffffffffffffffffffffffffffff19166020820180517bffffffffffffffffffffffffffffffffffffffffffffffffffffffff8381831617835250505050612a3b565b505050565b60008151905060006a636f6e736f6c652e6c6f679050602083016000808483855afa5050505050565b505050565b6000612a8a8473ffffffffffffffffffffffffffffffffffffffff16612c5b565b15612bf3578373ffffffffffffffffffffffffffffffffffffffff1663150b7a02612ab3612070565b8786866040518563ffffffff1660e01b8152600401612ad5949392919061397c565b602060405180830381600087803b158015612aef57600080fd5b505af1925050508015612b2057506040513d601f19601f82011682018060405250810190612b1d91906131e5565b60015b612ba3573d8060008114612b50576040519150601f19603f3d011682016040523d82523d6000602084013e612b55565b606091505b50600081511415612b9b576040517f08c379a0000000000000000000000000000000000000000000000000000000008152600401612b9290613bda565b60405180910390fd5b805181602001fd5b63150b7a0260e01b7bffffffffffffffffffffffffffffffffffffffffffffffffffffffff1916817bffffffffffffffffffffffffffffffffffffffffffffffffffffffff191614915050612bf8565b600190505b949350505050565b612c0a8383612c6e565b612c176000848484612a69565b612c56576040517f08c379a0000000000000000000000000000000000000000000000000000000008152600401612c4d90613bda565b60405180910390fd5b505050565b600080823b905060008111915050919050565b600073ffffffffffffffffffffffffffffffffffffffff168273ffffffffffffffffffffffffffffffffffffffff161415612cde576040517f08c379a0000000000000000000000000000000000000000000000000000000008152600401612cd590613d1a565b60405180910390fd5b612ce781612004565b15612d27576040517f08c379a0000000000000000000000000000000000000000000000000000000008152600401612d1e90613bfa565b60405180910390fd5b612d3360008383612a64565b6001600360008473ffffffffffffffffffffffffffffffffffffffff1673ffffffffffffffffffffffffffffffffffffffff1681526020019081526020016000206000828254612d839190613f94565b92505081905550816002600083815260200190815260200160002060006101000a81548173ffffffffffffffffffffffffffffffffffffffff021916908373ffffffffffffffffffffffffffffffffffffffff160217905550808273ffffffffffffffffffffffffffffffffffffffff16600073ffffffffffffffffffffffffffffffffffffffff167fddf252ad1be2c89b69c2b068fc378daa952ba7f163c4a11628f55a4df523b3ef60405160405180910390a45050565b6040518060a0016040528060608152602001606081526020016000815260200160008152602001600081525090565b6040518060c001604052806000815260200160608152602001606081526020016000815260200160008152602001600081525090565b828054612ead9061415f565b90600052602060002090601f016020900481019282612ecf5760008555612f16565b82601f10612ee857805160ff1916838001178555612f16565b82800160010185558215612f16579182015b82811115612f15578251825591602001919060010190612efa565b5b509050612f239190612f27565b5090565b5b80821115612f40576000816000905550600101612f28565b5090565b6000612f57612f5284613ed6565b613eb1565b905082815260208101848484011115612f6f57600080fd5b612f7a84828561411d565b509392505050565b600081359050612f9181614918565b92915050565b600081359050612fa68161492f565b92915050565b600081359050612fbb81614946565b92915050565b600081519050612fd081614946565b92915050565b600082601f830112612fe757600080fd5b8135612ff7848260208601612f44565b91505092915050565b60008135905061300f8161495d565b92915050565b60006020828403121561302757600080fd5b600061303584828501612f82565b91505092915050565b6000806040838503121561305157600080fd5b600061305f85828601612f82565b925050602061307085828601612f82565b9150509250929050565b60008060006060848603121561308f57600080fd5b600061309d86828701612f82565b93505060206130ae86828701612f82565b92505060406130bf86828701613000565b9150509250925092565b600080600080608085870312156130df57600080fd5b60006130ed87828801612f82565b94505060206130fe87828801612f82565b935050604061310f87828801613000565b925050606085013567ffffffffffffffff81111561312c57600080fd5b61313887828801612fd6565b91505092959194509250565b6000806040838503121561315757600080fd5b600061316585828601612f82565b925050602061317685828601612f97565b9150509250929050565b6000806040838503121561319357600080fd5b60006131a185828601612f82565b92505060206131b285828601613000565b9150509250929050565b6000602082840312156131ce57600080fd5b60006131dc84828501612fac565b91505092915050565b6000602082840312156131f757600080fd5b600061320584828501612fc1565b91505092915050565b60006020828403121561322057600080fd5b600061322e84828501613000565b91505092915050565b6000613243838361375c565b905092915050565b613254816140a9565b82525050565b600061326582613f17565b61326f8185613f45565b93508360208202850161328185613f07565b8060005b858110156132bd578484038952815161329e8582613237565b94506132a983613f38565b925060208a01995050600181019050613285565b50829750879550505050505092915050565b6132d8816140bb565b82525050565b60006132e982613f22565b6132f38185613f56565b935061330381856020860161412c565b61330c816142f8565b840191505092915050565b600061332282613f2d565b61332c8185613f67565b935061333c81856020860161412c565b613345816142f8565b840191505092915050565b600061335b82613f2d565b6133658185613f78565b935061337581856020860161412c565b61337e816142f8565b840191505092915050565b600061339482613f2d565b61339e8185613f89565b93506133ae81856020860161412c565b80840191505092915050565b60006133c7603283613f78565b91506133d282614309565b604082019050919050565b60006133ea601c83613f78565b91506133f582614358565b602082019050919050565b600061340d602383613f78565b915061341882614381565b604082019050919050565b6000613430600e83613f89565b915061343b826143d0565b600e82019050919050565b6000613453602483613f78565b915061345e826143f9565b604082019050919050565b6000613476601983613f78565b915061348182614448565b602082019050919050565b6000613499604f83613f89565b91506134a482614471565b604f82019050919050565b60006134bc602c83613f78565b91506134c7826144e6565b604082019050919050565b60006134df603883613f78565b91506134ea82614535565b604082019050919050565b6000613502602583613f78565b915061350d82614584565b604082019050919050565b6000613525602a83613f78565b9150613530826145d3565b604082019050919050565b6000613548602983613f78565b915061355382614622565b604082019050919050565b600061356b600483613f89565b915061357682614671565b600482019050919050565b600061358e602083613f78565b91506135998261469a565b602082019050919050565b60006135b1602c83613f78565b91506135bc826146c3565b604082019050919050565b60006135d4602983613f78565b91506135df82614712565b604082019050919050565b60006135f7602183613f78565b915061360282614761565b604082019050919050565b600061361a601d83613f89565b9150613625826147b0565b601d82019050919050565b600061363d603183613f78565b9150613648826147d9565b604082019050919050565b6000613660600a83613f89565b915061366b82614828565b600a82019050919050565b6000613683603d83613f89565b915061368e82614851565b603d82019050919050565b60006136a6602d83613f89565b91506136b1826148a0565b602d82019050919050565b60006136c9600983613f89565b91506136d4826148ef565b600982019050919050565b600060a08301600083015184820360008601526136fc8282613317565b915050602083015184820360208601526137168282613317565b915050604083015161372b604086018261387c565b50606083015161373e606086018261387c565b506080830151613751608086018261387c565b508091505092915050565b600060c083016000830151613774600086018261387c565b506020830151848203602086015261378c8282613317565b915050604083015184820360408601526137a68282613317565b91505060608301516137bb606086018261387c565b5060808301516137ce608086018261387c565b5060a08301516137e160a086018261387c565b508091505092915050565b600060c083016000830151613804600086018261387c565b506020830151848203602086015261381c8282613317565b915050604083015184820360408601526138368282613317565b915050606083015161384b606086018261387c565b50608083015161385e608086018261387c565b5060a083015161387160a086018261387c565b508091505092915050565b61388581614113565b82525050565b61389481614113565b82525050565b60006138a58261360d565b91506138b18284613389565b915081905092915050565b60006138c7826136bc565b91506138d38289613389565b91506138de82613653565b91506138ea8288613389565b91506138f58261348c565b91506139018287613389565b915061390c82613676565b91506139188286613389565b915061392382613423565b915061392f8285613389565b915061393a82613699565b91506139468284613389565b91506139518261355e565b9150819050979650505050505050565b6000602082019050613976600083018461324b565b92915050565b6000608082019050613991600083018761324b565b61399e602083018661324b565b6139ab604083018561388b565b81810360608301526139bd81846132de565b905095945050505050565b60006060820190506139dd600083018661324b565b6139ea602083018561388b565b6139f7604083018461388b565b949350505050565b60006020820190508181036000830152613a19818461325a565b905092915050565b6000602082019050613a3660008301846132cf565b92915050565b60006020820190508181036000830152613a568184613350565b905092915050565b60006080820190508181036000830152613a788187613350565b90508181036020830152613a8c8186613350565b9050613a9b604083018561388b565b8181036060830152613aad8184613350565b905095945050505050565b60006080820190508181036000830152613ad28187613350565b90508181036020830152613ae68186613350565b9050613af5604083018561388b565b613b02606083018461388b565b95945050505050565b600060a0820190508181036000830152613b258188613350565b90508181036020830152613b398187613350565b9050613b48604083018661388b565b613b55606083018561388b565b613b62608083018461388b565b9695505050505050565b60006040820190508181036000830152613b868185613350565b9050613b95602083018461388b565b9392505050565b60006060820190508181036000830152613bb68186613350565b9050613bc5602083018561388b565b613bd2604083018461388b565b949350505050565b60006020820190508181036000830152613bf3816133ba565b9050919050565b60006020820190508181036000830152613c13816133dd565b9050919050565b60006020820190508181036000830152613c3381613400565b9050919050565b60006020820190508181036000830152613c5381613446565b9050919050565b60006020820190508181036000830152613c7381613469565b9050919050565b60006020820190508181036000830152613c93816134af565b9050919050565b60006020820190508181036000830152613cb3816134d2565b9050919050565b60006020820190508181036000830152613cd3816134f5565b9050919050565b60006020820190508181036000830152613cf381613518565b9050919050565b60006020820190508181036000830152613d138161353b565b9050919050565b60006020820190508181036000830152613d3381613581565b9050919050565b60006020820190508181036000830152613d53816135a4565b9050919050565b60006020820190508181036000830152613d73816135c7565b9050919050565b60006020820190508181036000830152613d93816135ea565b9050919050565b60006020820190508181036000830152613db381613630565b9050919050565b60006020820190508181036000830152613dd481846136df565b905092915050565b60006020820190508181036000830152613df681846137ec565b905092915050565b6000602082019050613e13600083018461388b565b92915050565b600060c082019050613e2e600083018961388b565b8181036020830152613e408188613350565b90508181036040830152613e548187613350565b9050613e63606083018661388b565b613e70608083018561388b565b613e7d60a083018461388b565b979650505050505050565b6000604082019050613e9d600083018561388b565b613eaa602083018461388b565b9392505050565b6000613ebb613ecc565b9050613ec78282614191565b919050565b6000604051905090565b600067ffffffffffffffff821115613ef157613ef06142c9565b5b613efa826142f8565b9050602081019050919050565b6000819050602082019050919050565b600081519050919050565b600081519050919050565b600081519050919050565b6000602082019050919050565b600082825260208201905092915050565b600082825260208201905092915050565b600082825260208201905092915050565b600082825260208201905092915050565b600081905092915050565b6000613f9f82614113565b9150613faa83614113565b9250827fffffffffffffffffffffffffffffffffffffffffffffffffffffffffffffffff03821115613fdf57613fde61423c565b5b828201905092915050565b6000613ff582614113565b915061400083614113565b9250826140105761400f61426b565b5b828204905092915050565b600061402682614113565b915061403183614113565b9250817fffffffffffffffffffffffffffffffffffffffffffffffffffffffffffffffff048311821515161561406a5761406961423c565b5b828202905092915050565b600061408082614113565b915061408b83614113565b92508282101561409e5761409d61423c565b5b828203905092915050565b60006140b4826140f3565b9050919050565b60008115159050919050565b60007fffffffff0000000000000000000000000000000000000000000000000000000082169050919050565b600073ffffffffffffffffffffffffffffffffffffffff82169050919050565b6000819050919050565b82818337600083830152505050565b60005b8381101561414a57808201518184015260208101905061412f565b83811115614159576000848401525b50505050565b6000600282049050600182168061417757607f821691505b6020821081141561418b5761418a61429a565b5b50919050565b61419a826142f8565b810181811067ffffffffffffffff821117156141b9576141b86142c9565b5b80604052505050565b60006141cd82614113565b91507fffffffffffffffffffffffffffffffffffffffffffffffffffffffffffffffff821415614200576141ff61423c565b5b600182019050919050565b600061421682614113565b915061422183614113565b9250826142315761423061426b565b5b828206905092915050565b7f4e487b7100000000000000000000000000000000000000000000000000000000600052601160045260246000fd5b7f4e487b7100000000000000000000000000000000000000000000000000000000600052601260045260246000fd5b7f4e487b7100000000000000000000000000000000000000000000000000000000600052602260045260246000fd5b7f4e487b7100000000000000000000000000000000000000000000000000000000600052604160045260246000fd5b6000601f19601f8301169050919050565b7f4552433732313a207472616e7366657220746f206e6f6e20455243373231526560008201527f63656976657220696d706c656d656e7465720000000000000000000000000000602082015250565b7f4552433732313a20746f6b656e20616c7265616479206d696e74656400000000600082015250565b7f426f737320686173206e6f206865616c746820706f696e747320746f2061747460008201527f61636b0000000000000000000000000000000000000000000000000000000000602082015250565b7f2c20226d61785f76616c7565223a000000000000000000000000000000000000600082015250565b7f4552433732313a207472616e7366657220746f20746865207a65726f2061646460008201527f7265737300000000000000000000000000000000000000000000000000000000602082015250565b7f4552433732313a20617070726f766520746f2063616c6c657200000000000000600082015250565b7f222c20226465736372697074696f6e223a20225468697320697320616e204e6660008201527f7420666f7220706c6179696e672067616d657320696e2044656174682054726160208201527f7021222c2022696d616765223a20220000000000000000000000000000000000604082015250565b7f4552433732313a206f70657261746f7220717565727920666f72206e6f6e657860008201527f697374656e7420746f6b656e0000000000000000000000000000000000000000602082015250565b7f4552433732313a20617070726f76652063616c6c6572206973206e6f74206f7760008201527f6e6572206e6f7220617070726f76656420666f7220616c6c0000000000000000602082015250565b7f706c6179657220686173206e6f206865616c746820706f696e747320746f206160008201527f747461636b000000000000000000000000000000000000000000000000000000602082015250565b7f4552433732313a2062616c616e636520717565727920666f7220746865207a6560008201527f726f206164647265737300000000000000000000000000000000000000000000602082015250565b7f4552433732313a206f776e657220717565727920666f72206e6f6e657869737460008201527f656e7420746f6b656e0000000000000000000000000000000000000000000000602082015250565b7f7d205d7d00000000000000000000000000000000000000000000000000000000600082015250565b7f4552433732313a206d696e7420746f20746865207a65726f2061646472657373600082015250565b7f4552433732313a20617070726f76656420717565727920666f72206e6f6e657860008201527f697374656e7420746f6b656e0000000000000000000000000000000000000000602082015250565b7f4552433732313a207472616e73666572206f6620746f6b656e2074686174206960008201527f73206e6f74206f776e0000000000000000000000000000000000000000000000602082015250565b7f4552433732313a20617070726f76616c20746f2063757272656e74206f776e6560008201527f7200000000000000000000000000000000000000000000000000000000000000602082015250565b7f646174613a6170706c69636174696f6e2f6a736f6e3b6261736536342c000000600082015250565b7f4552433732313a207472616e736665722063616c6c6572206973206e6f74206f60008201527f776e6572206e6f7220617070726f766564000000000000000000000000000000602082015250565b7f202d2d4e465420233a2000000000000000000000000000000000000000000000600082015250565b7f222c202261747472696275746573223a205b207b202274726169745f7479706560008201527f223a20224865616c746820506f696e7473222c202276616c7565223a20000000602082015250565b7f7d2c207b202274726169745f74797065223a202241747461636b2044616d616760008201527f65222c202276616c7565223a2000000000000000000000000000000000000000602082015250565b7f7b226e616d653a20220000000000000000000000000000000000000000000000600082015250565b614921816140a9565b811461492c57600080fd5b50565b614938816140bb565b811461494357600080fd5b50565b61494f816140c7565b811461495a57600080fd5b50565b61496681614113565b811461497157600080fd5b5056fe426f73732041747461636b656420706c61796572204e657720426f73732048702069732025734d696e746564204e465420772f20746f6b656e20496420257320616e642063686172616374657220496e6465782025734142434445464748494a4b4c4d4e4f505152535455565758595a6162636465666768696a6b6c6d6e6f707172737475767778797a303132333435363738392b2f0a506c6179657220772f206368617261637465722025732061626f757420746f2061747461636b2e2048617320257320485020616e64202573204144506c617965722061747461636b65642074686520626f737320616e6420506c61796572206e6f7720686173202573206870a26469706673582212205369532148f7a64f437a7b568deaa3bcfe008cbe83fd7771f57e84ce7e56724564736f6c63430008040033446f6e6520696e697469616c697a696e6720257320772f2048502025732c20696d67202573",
  "linkReferences": {},
  "deployedLinkReferences": {}
}